:020000040800F2
:100000000080012081860008851100088711000802
:10001000891100088B1100088D11000800000000F4
:100020000000000000000000000000008F11000828
:1000300091110008000000009311000895110008BC
:10004000D1860008D1860008D1860008D186000834
:10005000D1860008D1860008D1860008D186000824
:10006000D1860008D1860008D1860008D186000814
:10007000D1860008D1860008D186000899110008B1
:10008000A9110008B9110008D1860008D18600081E
:10009000D1860008D1860008D1860008D1860008E4
:1000A000D1860008D1860008D1860008D1860008D4
:1000B000D1860008C9110008D1860008D186000841
:1000C000D1860008D1860008D1860008D1860008B4
:1000D000D9110008D1860008E9110008D18600086E
:1000E000D1860008D1860008D1860008D186000894
:1000F000D1860008D1860008D1860008D186000884
:10010000D1860008D1860008D1860008F9110008C0
:10011000D1860008D1860008D1860008091200089F
:10012000D1860008D1860008D1860008D186000853
:10013000D1860008D1860008D1860008D186000843
:10014000D1860008D1860008D1860008191200085F
:10015000D1860008D1860008D1860008D186000823
:10016000D1860008D1860008D1860008D186000813
:10017000D1860008D1860008D18600080000000062
:08018000D1860008D1860008B9
:10019000034613F8012B002AFBD1181A01387047C7
:1001A00001F0FF01102A2BDB10F0070F08D010F828
:1001B000013B013A8B422DD010F0070F42B3F6D12C
:1001C000F0B441EA012141EA014122F007047FF045
:1001D00000070023F0E80256083C85EA010586EA9C
:1001E000010685FA47F5A3FA87F586FA47F6A5FAD8
:1001F00087F68EB9EED1F0BC01F0FF0102F00702E4
:1002000032B110F8013B013A83EA010313B1F8D18E
:100210000020704701387047002D06BF354603386F
:10022000073815F0010F07D1013015F4807F02BFA8
:10023000013015F4C03F0130F0BC0138704700BFF9
:1002400081F0004102E000BF83F0004330B54FEA87
:1002500041044FEA430594EA050F08BF90EA020FF4
:100260001FBF54EA000C55EA020C7FEA645C7FEA87
:10027000655C00F0E2804FEA5454D4EB5555B8BFAA
:100280006D420CDD2C4480EA020281EA030382EA1B
:10029000000083EA010180EA020281EA0303362DAD
:1002A00088BF30BD11F0004F4FEA01314FF4801C80
:1002B0004CEA113102D0404261EB410113F0004F92
:1002C0004FEA03334CEA133302D0524263EB430349
:1002D00094EA050F00F0A780A4F10104D5F1200EE7
:1002E0000DDB02FA0EFC22FA05F2801841F1000142
:1002F00003FA0EF2801843FA05F359410EE0A5F116
:1003000020050EF1200E012A03FA0EFC28BF4CF046
:10031000020C43FA05F3C01851EBE37101F00045FC
:1003200007D54FF0000EDCF1000C7EEB00006EEB09
:100330000101B1F5801F1BD3B1F5001F0CD3490893
:100340005FEA30004FEA3C0C04F101044FEA4452EA
:1003500012F5800F80F09A80BCF1004F08BF5FEA71
:10036000500C50F1000041EB045141EA050130BD51
:100370005FEA4C0C404141EB010111F4801FA4F1F4
:100380000104E9D191F0000F04BF01460020B1FA49
:1003900081F308BF2033A3F10B03B3F120020CDA81
:1003A0000C3208DD02F1140CC2F10C0201FA0CF05F
:1003B00021FA02F10CE002F11402D8BFC2F1200CC4
:1003C00001FA02F120FA0CFCDCBF41EA0C0190407A
:1003D000E41AA2BF01EB0451294330BD6FEA0404C3
:1003E0001F3C1CDA0C340EDC04F11404C4F12002AE
:1003F00020FA04F001FA02F340EA030021FA04F3C0
:1004000045EA030130BDC4F10C04C4F1200220FA16
:1004100002F001FA04F340EA0300294630BD21FA54
:1004200004F0294630BD94F0000F83F4801306BF1A
:1004300081F480110134013D4EE77FEA645C18BF0E
:100440007FEA655C29D094EA050F08BF90EA020FA5
:1004500005D054EA000C04BF1946104630BD91EA9D
:10046000030F1EBF0021002030BD5FEA545C05D1A0
:100470004000494128BF41F0004130BD14F58004DF
:100480003CBF01F5801130BD01F0004545F0FE4153
:1004900041F470014FF0000030BD7FEA645C1ABF88
:1004A000194610467FEA655C1CBF0B46024650EABF
:1004B000013406BF52EA033591EA030F41F40021EB
:1004C00030BD00BF90F0000F04BF0021704730B571
:1004D0004FF4806404F132044FF000054FF0000146
:1004E00050E700BF90F0000F04BF0021704730B507
:1004F0004FF4806404F1320410F0004548BF4042DC
:100500004FF000013EE700BF42004FEAE2014FEA30
:1005100031014FEA02701FBF12F07F4393F07F4F0B
:1005200081F06051704732F07F4208BF704793F00E
:100530007F4F04BF41F40021704730B54FF4607421
:1005400001F0004521F000411CE700BF50EA010224
:1005500008BF704730B54FF000050AE050EA0102CD
:1005600008BF704730B511F0004502D5404261EB3D
:1005700041014FF4806404F132045FEA915C3FF47E
:10058000D8AE4FF003025FEADC0C18BF03325FEA1B
:10059000DC0C18BF033202EBDC02C2F1200300FACC
:1005A00003FC20FA02F001FA03FE40EA0E0021FAF1
:1005B00002F11444BDE600BF70B54FF0FF0C4CF4DF
:1005C000E06C1CEA11541DBF1CEA135594EA0C0F91
:1005D00095EA0C0F00F0DEF82C4481EA030621EACC
:1005E0004C5123EA4C5350EA013518BF52EA033507
:1005F00041F4801143F4801338D0A0FB02CE4FF0B9
:100600000005E1FB02E506F00042E0FB03E54FF0E8
:100610000006E1FB03569CF0000F18BF4EF0010EE0
:10062000A4F1FF04B6F5007F64F5407404D25FEADC
:100630004E0E6D4146EB060642EAC62141EA55518F
:100640004FEAC52040EA5E504FEACE2EB4F1FD0CD1
:1006500088BFBCF5E06F1ED8BEF1004F08BF5FEA4F
:10066000500E50F1000041EB045170BD06F0004601
:1006700046EA010140EA020081EA0301B4EB5C04AE
:10068000C2BFD4EB0C0541EA045170BD41F48011A6
:100690004FF0000E013C00F3AB8014F1360FDEBFCB
:1006A000002001F0004170BDC4F10004203C35DAA7
:1006B0000C341BDC04F11404C4F1200500FA05F32A
:1006C00020FA04F001FA05F240EA020001F00042CB
:1006D00021F0004110EBD37021FA04F642EB060141
:1006E0005EEA430E08BF20EAD37070BDC4F10C046B
:1006F000C4F1200500FA04F320FA05F001FA04F22F
:1007000040EA020001F0004110EBD37041F100011A
:100710005EEA430E08BF20EAD37070BDC4F1200525
:1007200000FA05F24EEA020E20FA04F301FA05F28D
:1007300043EA020321FA04F001F0004121FA04F235
:1007400020EA020000EBD3705EEA430E08BF20EA05
:10075000D37070BD94F0000F0FD101F0004640003F
:1007600041EB010111F4801F08BF013CF7D041EAC1
:10077000060195F0000F18BF704703F000465200C5
:1007800043EB030313F4801F08BF013DF7D043EA96
:100790000603704794EA0C0F0CEA135518BF95EA4C
:1007A0000C0F0CD050EA410618BF52EA4306D1D1D3
:1007B00081EA030101F000414FF0000070BD50EAF2
:1007C000410606BF1046194652EA430619D094EA7C
:1007D0000C0F02D150EA013613D195EA0C0F05D166
:1007E00052EA03361CBF104619460AD181EA0301BA
:1007F00001F0004141F0FE4141F470014FF0000072
:1008000070BD41F0FE4141F4780170BD70B54FF00C
:10081000FF0C4CF4E06C1CEA11541DBF1CEA13558C
:1008200094EA0C0F95EA0C0F00F0A7F8A4EB05046E
:1008300081EA030E52EA03354FEA013100F0888065
:100840004FEA03334FF0805545EA131343EA12632E
:100850004FEA022245EA111545EA10654FEA0026E3
:100860000EF000419D4208BF964244F1FD0404F59C
:10087000407402D25B084FEA3202B61A65EB0305F8
:100880005B084FEA32024FF480104FF4002CB6EBB5
:10089000020E75EB030E22BFB61A754640EA0C0035
:1008A0005B084FEA3202B6EB020E75EB030E22BF75
:1008B000B61A754640EA5C005B084FEA3202B6EBB6
:1008C000020E75EB030E22BFB61A754640EA9C0075
:1008D0005B084FEA3202B6EB020E75EB030E22BF45
:1008E000B61A754640EADC0055EA060E18D04FEA03
:1008F000051545EA16754FEA06164FEAC30343EAA3
:1009000052734FEAC2025FEA1C1CC0D111F4801F6F
:100910000BD141EA00014FF000004FF0004CB6E768
:1009200011F4801F04BF01430020B4F1FD0C88BF07
:10093000BCF5E06F3FF6AFAEB5EB030C04BFB6EB12
:10094000020C5FEA500C50F1000041EB045170BD05
:100950000EF0004E4EEA113114EB5C04C2BFD4EB32
:100960000C0541EA045170BD41F480114FF0000EB6
:10097000013C90E645EA060E8DE60CEA135594EA32
:100980000C0F08BF95EA0C0F3FF43BAF94EA0C0F35
:100990000AD150EA01347FF434AF95EA0C0F7FF4AA
:1009A00025AF104619462CE795EA0C0F06D152EAFE
:1009B00003353FF4FDAE1046194622E750EA4106E2
:1009C00018BF52EA43067FF4C5AE50EA41047FF4F3
:1009D0000DAF52EA43057FF4EBAE12E74FF0FF3C58
:1009E00006E000BF4FF0010C02E000BF4FF0010C29
:1009F0004DF804CD4FEA410C7FEA6C5C4FEA430CA2
:100A000018BF7FEA6C5C1BD001B050EA410C0CBFF0
:100A100052EA430C91EA030F02BF90EA020F002052
:100A2000704710F1000F91EA030F58BF994208BFB9
:100A300090422CBFD8176FEAE37040F00100704776
:100A40004FEA410C7FEA6C5C02D150EA013C07D1CD
:100A50004FEA430C7FEA6C5CD6D152EA033CD3D018
:100A60005DF8040B704700BF8446104662468C4612
:100A70001946634600E000BF01B5FFF7B7FF002845
:100A800048BF10F1000F01BD4DF808EDFFF7F4FF6E
:100A90000CBF012000205DF808FB00BF4DF808EDF9
:100AA000FFF7EAFF34BF012000205DF808FB00BF1C
:100AB0004DF808EDFFF7E0FF94BF012000205DF83E
:100AC00008FB00BF4DF808EDFFF7CEFF94BF0120F3
:100AD00000205DF808FB00BF4DF808EDFFF7C4FFEC
:100AE00034BF012000205DF808FB00BF4FEA410C35
:100AF0007FEA6C5C02D150EA013C0AD14FEA430C18
:100B00007FEA6C5C02D152EA033C02D14FF0000054
:100B100070474FF0010070474FEA410212F5001292
:100B200015D211D56FF47873B3EB625212D94FEA34
:100B3000C12343F0004343EA505311F0004F23FA1E
:100B400002F018BF404270474FF00000704750EA73
:100B5000013005D111F0004008BF6FF00040704730
:100B60004FF00000704700BF53B94AB9002908BFD1
:100B700000281CBF4FF0FF314FF0FF3000F00CB8E1
:100B8000ADF1080C6DE904CE0AF050FADDF804E08E
:100B9000DDE9022304B07047704700BF0348044BEF
:100BA000834202D0034B03B118477047000900206D
:100BB000000900200000000005480649091A8910B4
:100BC00001EBD171491002D0034B03B118477047B4
:100BD00000090020000900200000000010B5064CAC
:100BE000237843B9FFF7DAFF044B13B10448AFF39E
:100BF00000800123237010BD0009002000000000C8
:100C0000FCB2000808B5054B1BB105490548AFF318
:100C10000080BDE80840FFF7CFBF00BF0000000024
:100C200004090020FCB2000808B50268034B9A4290
:100C300000D008BD01F03AFCFBE700BF0014004003
:100C400072B6FEE700B597B04422002105A807F070
:100C500083FD0023009301930293039304934FF4C5
:100C6000007002F033FF58BB1023059301220B9252
:100C700000230C9360230D9302230F931092119283
:100C800028221292072213921493159305A801F0BB
:100C9000FBFCB8B90F2300930323019300230293B5
:100CA000039304930421684602F00AF860B9002215
:100CB0004FF08071104601F067FC17B05DF804FB3F
:100CC000FFF7BEFFFFF7BCFFFFF7BAFF00B5A3B009
:100CD0006822002108A807F03FFD4FF4022300938B
:100CE0004FF080631B931C930123019302931823FD
:100CF0000393072304930223059306934FF4801371
:100D00000793684602F030FA10B923B05DF804FB8F
:100D1000FFF796FF38B501F0B3FBFFF793FFFFF73E
:100D2000D5FF00F0DFF804F039F800F08DF904F099
:100D300057FA06F055F906F0A9FF06F02BF906F070
:100D400075F90A2001F0C4FB0A2308224D494E48D8
:100D500003F028FF0A2001F0BBFB01224B494C485D
:100D600006F06CFD4B4808F089FA07F05DF907F0D2
:100D70000DFB0021484803F039F9002566E0474C97
:100D8000A27894F9033043EA42035BB2627843EA03
:100D900082035BB22278217A0A4343EAC2035BB240
:100DA000227943EA02135BB2627943EA42135BB2EF
:100DB000A27943EA82135BB2E27943EAC21338486C
:100DC00003700222012107F043F9364808F056FA71
:100DD0002178354808F0B8F96178344808F0B4F95A
:100DE000A178334808F0B0F9E178324808F0ACF95E
:100DF0002179314808F0A8F96179304808F0A4F960
:100E0000A1792F4808F0A0F9E1792E4808F09CF963
:100E1000217A2D4808F098F9617A2C4808F094F965
:100E2000A17A2B4808F090F9E17A2A4808F08CF969
:100E300014E000224FF40051274802F0B2FC274B87
:100E400000221A7000E0254606F06AFF04F0E8F977
:100E500007F046FA07F0A2FA002890D1204B93F849
:100E60002033002BE5D06C1CC5F30D05002DEAD115
:100E70004FF40051184802F099FC07F067F9254635
:100E8000E2E700BF18B30008840A0020EC09002044
:100E90003413002020B300084414002090180020D0
:100EA0001C09002030B3000844B300084CB300080C
:100EB00058B3000864B3000870B3000878B30008A2
:100EC00080B3000888B3000894B300089CB30008FE
:100ED000A4B30008ACB3000800080048EE090020E5
:100EE000580B00202DE9F0418AB0002405940694A7
:100EF000079408940994514BDA6C42F00402DA64C6
:100F0000DA6C02F004020092009ADA6C42F080027D
:100F1000DA64DA6C02F080020192019ADA6C42F033
:100F20000102DA64DA6C02F001020292029ADA6CCF
:100F300042F00202DA64DA6C02F002020392039ACF
:100F4000DA6C42F00802DA64DB6C03F00803049305
:100F5000049B3B4D224642F20F01284602F021FC41
:100F600001223021284602F01CFC364E224646F66D
:100F70000101304602F015FC22464FF480614FF02B
:100F8000904002F00EFC42F21F0305934FF001085F
:100F9000CDF818800794089405A9284602F010FBA4
:100FA00020230593112306930794089405A9284646
:100FB00002F006FB46F201030593CDF81880079472
:100FC000089405A9304602F0FBFA4FF4006305933C
:100FD000CDF8188002270797089405A9304602F03B
:100FE000EFFAC02305930694079705A9284602F057
:100FF000E7FA4FF4807305930697079408940994D1
:1010000005A94FF0904002F0DBFA4FF4806305939E
:10101000CDF818800794089405A94FF0904002F08D
:10102000CFFA4FF4707305930694079705A93046DD
:1010300002F0C6FA0AB0BDE8F08100BF001002401D
:10104000000800480004004808B50B480B4B03603B
:101050004FF46123436000238360C36003610C226B
:1010600042618361C3610362436203F040FE00B9E1
:1010700008BDFFF7E5FDFBE7840A002000440040BF
:1010800070B5AAB004460021259126912791289198
:101090002991882203A807F05FFB2268334B9A420C
:1010A00001D02AB070BD0223039303A802F05CF8BC
:1010B000002852D12E4B9A6D42F400329A659A6DF7
:1010C00002F400320192019ADA6C42F00102DA6411
:1010D000DB6C03F001030293029B0C232593022691
:1010E000269600252795032328930723299325A9CE
:1010F0004FF0904002F064FA1E481F4B03604660B8
:101100008560C56080230361456185612023C361DB
:10111000056202F06DFB18BB164B23679C621748F3
:10112000174B036002234360102383600023C360D6
:101130008022026143618361C361036202F058FB54
:1011400088B90E4BE3669C6200221146262002F00D
:101150001DFD262002F04EFDA3E7FFF771FDA9E774
:10116000FFF76EFDD8E7FFF76BFDEAE700440040AC
:1011700000100240F40900206C0002403C0A0020EC
:1011800080000240FEE7FEE7FEE7FEE7FEE770476D
:10119000704770477047000008B5024802F02CFC09
:1011A00008BD00BFFC13002008B5024802F024FC73
:1011B00008BD00BFF409002008B5024802F01CFC7D
:1011C00008BD00BF3C0A002008B5024802F06CFDD3
:1011D00008BD00BF4414002008B5024806F0BEFC5C
:1011E00008BD00BFD012002008B5024803F006F980
:1011F00008BD00BF840A002008B5024806F0AEFC16
:1012000008BD00BF3413002008B5024802F04CFDB1
:1012100008BD00BF0C0B002008B5024800F0ABFC75
:1012200008BD00BF380F002082B00A4B1A6E42F092
:1012300001021A661A6E02F001020092009A9A6D7B
:1012400042F080529A659B6D03F080530193019B9D
:1012500002B0704700100240F8B505682C6A04F02F
:101260000F06C4F34343C4F30A14022B00D0F8BDA5
:10127000002CFCD02C2303FB0603596C0029F6D06C
:101280002C2303FB06031A6D2244DB6C9A4206D919
:101290002C2303FB0600042380F86030E7E70746B1
:1012A0002246284600F0FEFD2C2303FB06735A6CF1
:1012B00022445A641A6D22441A6505EB4615D5F886
:1012C0001025C2F3C942B3F84030A342CFD1002A5F
:1012D000CDD0D5F8003523F0804343F00043C5F866
:1012E00000352C2000FB067090F8543083F0010389
:1012F00080F85430BBE7F0B585B09DF828509DF8D4
:101300002C60BDF8307090F8F842012C38D00124E0
:1013100080F8F8422C2404FB01044FF0000C84F800
:101320003DC084F83830A4F8407084F8391084F84F
:101330003F6002F07F0C84F83AC012F0800F17D1A2
:101340002C2404FB01044FF0000C84F83BC004463D
:101350002C2000FB014080F83C500297019600953C
:10136000206800F0BFFE002384F8F83205B0F0BD1D
:101370002C2404FB01044FF0010C84F83BC0E6E789
:101380000220F3E790F8F832012B0BD010B5044699
:10139000012380F8F832006800F0BBFF002084F8D9
:1013A000F80210BD02207047002845D0F0B58BB080
:1013B0000646046890F8F932002B38D0032386F8EB
:1013C000F932E36B13F4807F01D10023336130687D
:1013D00000F005FD344654F810CB6D460FCC0FC518
:1013E0000FCC0FC594E8030085E80300371D97E88C
:1013F0000E00604600F0D2FC0121306800F07FFD55
:10140000344654F810CB6D460FCC0FC50FCC0FC52A
:1014100094E8030085E8030097E80E00604600F0BA
:101420009FFD012386F8F93200200BB0F0BD80F853
:10143000F83203F0FDFEC1E701207047F8B59DF8D2
:101440001850BDF820602C2404FB010484F83B20D4
:1014500084F83F307DB92C2404FB0104032784F871
:1014600042709DF8247084F83D70032B7FD8DFE82C
:1014700003F0097828502C2404FB0104022784F887
:101480004270F2E7012D72D1002A70D12EB92C23BF
:1014900003FB0103012283F855202C2303FB0103E6
:1014A00093F8553033B92C2303FB0103002283F852
:1014B00042205CE02C2303FB0103022283F842203C
:1014C00055E092B92C2303FB010393F855302BB957
:1014D0002C2303FB010383F8422048E02C2303FB69
:1014E0000103022283F8422041E02C2303FB010385
:1014F00093F8543033B92C2303FB0103002283F803
:10150000422034E02C2303FB0103022283F8422013
:101510002DE092B92C2303FB010393F855302BB92E
:101520002C2303FB010383F8422020E02C2303FB40
:101530000103022283F8422019E02C2303FB01035C
:1015400093F8543033B92C2303FB0103002283F8B2
:1015500042200CE02C2303FB0103022283F84220EB
:1015600005E02C2303FB0103002283F842202C23F7
:1015700003FB01F3C218079C5464D664002482F86C
:101580006040146582F8391082F8614003F1380137
:101590000144006800F030FEF8BD30B583B0054668
:1015A0000468D4F840340193D4F840340093009B8D
:1015B00023F02E030093019B13F0020F07D0019B31
:1015C00013F0010F25D1009B43F002030093019B10
:1015D00013F0080F10D0009B43F008030093019B09
:1015E00013F0040F2DD0AB69022B15D0EB68012B43
:1015F00022D0284603F089FE019B13F0200F03D070
:10160000009B43F020030093009BC4F8403403B0D8
:1016100030BD03F06DFED6E7019B03F4C023B3F5A4
:10162000802F04D00121286800F0EAFCE1E70221C4
:10163000286800F0E5FCDCE74EF66022C4F80424DC
:10164000D7E7284603F067FED6E7F8B505460E460D
:10165000076807EB411707F5A064A36813F0040FB0
:101660000AD1A36813F4807F3DD1A36813F0200F43
:1016700046D02023A3600AE00423A3602C2303FBAD
:101680000103062283F86120006800F042FEA3688F
:1016900013F4007F65D1A36813F0010F00F0A2805E
:1016A0002C2303FB0653012283F861200021D96516
:1016B000A26093F83F30002B5BD0022B59D0032B54
:1016C0006AD0012B5BD12C2303FB0653012283F844
:1016D000602093F85410514083F854103146284646
:1016E00003F012FE4BE04FF48073A3602C2303FB46
:1016F0000103072283F86120006800F00AFEC6E7B4
:10170000A36813F0080F13D1A36813F4806F1BD1E3
:10171000A36813F0800FBAD08023A3602C2303FBAF
:101720000103062283F86120006800F0F2FDAEE7B5
:101730000823A3602C2303FB0103052283F8612007
:10174000006800F0E6FDA2E74FF48063A3602C235D
:1017500003FB0103082283F86120006800F0D9FD33
:1017600095E73146286800F0D4FD4FF40073A3607C
:10177000F8BD3146286800F0CCFD1023A3602B692A
:10178000012B1AD02C2303FB065595F8543083F017
:10179000010385F85430EBE7D7F8003543F00053E8
:1017A000C7F800352C2303FB0653012283F8602081
:1017B0003146284603F0A8FDE1E72C2303FB06533E
:1017C0009A6CB3F84030B2FBF3F313F0010FCFD0B3
:1017D0002C2303FB065595F8543083F0010385F85C
:1017E0005430C5E7A36813F0020F60D02C2303FB2D
:1017F000065393F86130012B13D0052B23D0062B11
:1018000028D0082B26D0032B42D0072B0FD12C2316
:1018100003FB0653DA6D0132DA65042283F8602097
:1018200005E02C2303FB0653012283F860200223EA
:10183000A3602C2303FB065393F86020314628460F
:1018400003F062FD94E72C2303FB0653052283F883
:101850006020ECE72C2202FB0652D36D0133D365E6
:10186000022B06D913460022DA65042283F8602091
:10187000DDE72C2303FB0653022283F86020D7F810
:10188000003523F0804343F00043C7F80035CEE72E
:101890002C2303FB0653022283F86020D7F800357F
:1018A00023F0804343F00043C7F80035BFE7A36847
:1018B00013F0100F3FF45CAF2C2303FB065393F897
:1018C0003F30032B11D00BB1022B0BD12C2303FB88
:1018D00006530022DA65032283F861203146286826
:1018E00000F017FD1023A36042E72C2303FB0653EF
:1018F0000022DA653146286800F00BFDF2E738B5C2
:10190000036803EB411202F5A064A56815F0040F0B
:1019100019D1A56815F0200F21D02023A3602C2316
:1019200003FB010393F83D30012B17D12C2303FB5C
:101930000103002283F83D20022283F86020006822
:1019400000F0E7FC0AE00423A3602C2303FB01035F
:10195000062283F86120006800F0DBFC38BDA56832
:1019600015F4007F1FD1A56815F0010F22D02C239C
:1019700003FB01030022DA65A36813F0400F07D0D0
:101980002C2303FB0103012283F83D204023A360A5
:101990000122A2602C2303FB010383F8612000686D
:1019A00000F0B7FCDAE74FF40073A360006800F0C2
:1019B000B0FCD3E7A56815F0400F37D1A56815F046
:1019C000080F44D1A56815F0100F4CD1A56815F08B
:1019D000800F56D1A56815F4806F5ED1A36813F00F
:1019E000020FBBD02C2303FB010393F86130012BC2
:1019F00060D0032B00F09280042B00F09F80052B19
:101A000000F0A380062B02D0082B40F08D802C25FF
:101A100005FB0105EB6D0133EB65022B40F29C8069
:101A20000022EA65042285F860207DE02C2202FB7A
:101A30000100042280F86120012280F83D2000226C
:101A4000C265184600F065FC4023A36086E70823C2
:101A5000A3602C2303FB0103052283F861200068A7
:101A600000F057FC7AE72C2202FB01000022C2653D
:101A7000032280F86120184600F04BFC1023A3607D
:101A80006CE72C2202FB0102062082F86100184656
:101A900000F03FFC8023A36060E72C2202FB0102E0
:101AA000082082F86100184600F033FC4FF4806390
:101AB000A36053E72C2303FB0103012283F860207A
:101AC00093F83F30023BDBB293422DD8056945B90C
:101AD0002C2303FB010393F8552082F0010283F8C5
:101AE0005520012D20D12C2303FB0103DB6CDBB13E
:101AF0002C2202FB0102B2F840201344013BB3FB4D
:101B0000F2F313F0010F0FD02C2303FB010393F822
:101B1000552082F0010283F8552005E02C2303FBB9
:101B20000103022283F860200223A3602C2303FB1D
:101B3000010393F8602003F0E7FB0FE72C2303FB7E
:101B40000103022283F86020EEE72C2303FB01034C
:101B5000052283F86020E7E72C2303FB010302251D
:101B600083F86050D2F8003523F0804343F00043FF
:101B7000C2F80035D8E7F8B504460568284600F0F5
:101B8000BAF9012800D0F8BD2E46206800F0AFF960
:101B90000028F8D0206800F0AAF910F4001F03D044
:101BA00023684FF400125A61206800F0A0F910F485
:101BB000801F03D023684FF480125A61206800F020
:101BC00096F910F0806F03D023684FF080625A615D
:101BD000206800F08CF910F0020F02D02368022276
:101BE0005A61206800F083F910F0005F08D0236884
:101BF0004FF000525A61D5F8403413F0010F1DD058
:101C0000206800F074F910F0807F26D1206800F081
:101C10006EF910F0080F24D1206800F068F910F078
:101C2000100F25D1206800F062F910F0007FAAD0D3
:101C3000206800F069FB074600252CE010212846AB
:101C400000F0D4F8284600F0F7F80121206800F0F1
:101C5000D7F9204603F052FBD2E72046FFF79DFC60
:101C6000D4E7204603F03EFB236808225A61D3E7FD
:101C70002268936923F0100393612046FFF7ECFA82
:101C80002268936943F010039361CBE7E9B22046E1
:101C9000FFF735FE0135A368AB4212D905F00F03FB
:101CA00027FA03F313F0010FF4D006EB4513D3F832
:101CB000003513F4004FE9D0E9B22046FFF7C5FC28
:101CC000E8E723684FF000725A615CE790F8F83259
:101CD000012B0ED010B50446012180F8F8120068DF
:101CE00000F0CDF9206800F074F8002084F8F802C4
:101CF00010BD0220704790F8F832012B0BD010B5C0
:101D00000446012380F8F832006800F070FB0020E0
:101D100084F8F80210BD0220704708B5006800F092
:101D20008FF908BD2C2303FB010191F86000704777
:101D30002C2303FB0101086D704708B5006800F013
:101D4000CCF908BD08B5006800F0BCF908BD00007A
:101D500082B000230193019B013301930E4A934209
:101D600014D80369002BF6DA00230193036943F0CA
:101D700001030361019B01330193074A934208D891
:101D8000036913F0010FF5D1002000E0032002B039
:101D900070470320FBE700BF400D030084B038B557
:101DA000044605AD85E80E00C36843F04003C360F8
:101DB000FFF7CEFF0E9B3BB9A36B43F48033A363C5
:101DC000BDE8384004B07047A36B23F48033A363AD
:101DD000F6E7836843F0010383600020704783685F
:101DE00023F00103836000207047000082B00023CD
:101DF0000193019B013301930E4A934214D8036966
:101E0000002BF6DA00230193890141F020010161E2
:101E1000019B01330193074A934208D8036913F0E9
:101E2000200FF5D1002000E0032002B0704703200E
:101E3000FBE700BF400D030082B000230193019B2C
:101E4000013301930D4A934212D80369002BF6DA4D
:101E50000023019310230361019B01330193074A7F
:101E6000934208D8036913F0100FF5D1002000E069
:101E7000032002B070470320FBE700BF400D0300C2
:101E800070B403339B0800259D4208D200EB023456
:101E900004F5805451F8046B26600135F4E7002006
:101EA00070BC704770B483B00646950802F0030218
:101EB0000023AB4206D206F58054246841F8044B57
:101EC0000133F6E77AB100F58050036801930025ED
:101ED000EBB2DC00019BE34001F8013B0135013A24
:101EE00092B2002AF4D1084603B070BC7047426930
:101EF000806910407047406900F00100704738B5B4
:101F00000546C36823F0C043C360012913D019BB41
:101F1000C36843F08043C3600024012000F0D8FA76
:101F200001342846FFF7E7FF08B1312CF5D9322CF0
:101F300014D0002038BDC36843F00053C3600024B0
:101F4000012000F0C5FA01342846FFF7D4FF01282C
:101F5000EDD0312CF4D9EAE70120EBE70120E9E7E5
:101F600084B070B5044605AD85E80E000546002333
:101F7000C0F8003E836B23F400138363836B23F468
:101F800000338363D0F8003423F00403C0F8003436
:101F90001021FFF72BFF064600B101262046FFF770
:101FA0004BFF00B101260022069B93420AD905EBA4
:101FB00042134FF0FF31C3F808150021C3F80C1588
:101FC0000132F1E70023A3614FF0FF336361802307
:101FD000636203F5C003A362074BC4F80031A36931
:101FE00043F01003A361A269044B1343A36130467D
:101FF000BDE8704004B07047E0004000080020A336
:1020000010B400F58064D0F8003423F00303C0F866
:102010000034D0F8003401F003021343C0F8003458
:10202000012905D0022907D000205DF8044B704734
:102030004BF680336360F7E741F270736360F3E758
:1020400030B583B0044600250195D0F840340193A3
:10205000019B23F02E030193019B43F48073C0F88E
:102060004034642000F034FA019B23F48073C4F8F8
:1020700040340A2000F02CFA284603B030BD82B06C
:1020800000230193D0F840340193019B23F02E03E9
:102090000193019B13F4805F01D101290CD0019BB6
:1020A00013F4805F05D021B9019B23F48053C0F85D
:1020B0004034002002B07047019B43F48053C0F8C5
:1020C0004034ECE782B000230193D0F84034019310
:1020D0000198C0F3414002B0704700F5806080680D
:1020E00080B270472DE9F84391461C469DF8245074
:1020F00000EB411606F5A0634FF0FF329A60032D06
:1021000066D8DFE805F00257024940F29D42DA60E6
:1021100019F0800F3AD10027DA6842F00202DA6043
:10212000D0F8183401F00F01012202FA01F10B433B
:10213000C0F81834836943F00073836119F0800F8D
:1021400048D14FF00008FFF7BDFF9DF82030022B6B
:1021500043D00022A30503F0FE534FEAC92909F436
:10216000F04943EA0903AC0404F440242343BDF8D6
:102170002810C1F30A010B4343EA08031343C6F8CE
:102180000035032D30D03846BDE8F883DA6842F4D4
:102190008072DA600027BFE740F29D62DA6019F0D2
:1021A000800F01D10027B7E7DA6842F48072DA6065
:1021B0000027B1E740F22522DA6019F0800F01D143
:1021C0000027A9E7DA6842F4C072DA600027A3E7C3
:1021D0000127A1E74FF40048B5E7022802D04FF4E9
:1021E0000032B7E70022B5E7D6F8003543F00053D8
:1021F000C6F80035C7E7000030B583B04B784A69B0
:102200006AB10D895419013CB4FBF5F4A4B2B4F5DC
:10221000807F05D92D020D614FF4807400E0012408
:10222000CD78002D48D00A8902FB04F20A610A69C0
:10223000C2F31202334D05EAC44422438C7A640788
:1022400004F0C04400EB431303F5A0652243C3F838
:10225000102500F58064A26812F0010FD3F8002564
:1022600022F00052C3F80025D3F800250CBF4FF030
:10227000005500252A43C3F80025D3F80025019214
:10228000019A22F080420192CA78BAB1019A42F4CE
:1022900000420192019A42F000420192019AC3F871
:1022A0000025CB78FBB94B69EBB1CA79032A15D865
:1022B000DFE802F0091C091C0A61B8E7019A22F460
:1022C00000420192E6E70333C26A92B2C3F38F037E
:1022D0009A4203D2836943F0200383618B8A4A7850
:1022E000C968FFF7CDFD002003B030BD033322697C
:1022F00092B2C3F38F039A42F0D2836943F08063B2
:102300008361EBE70000F81F00F58060406980B250
:10231000704730B482B00023019300EB411101F506
:10232000A064D1F80035C3F38143D1F80025856856
:1023300015F0200F02D0D20F002A4DD013B3022B7C
:1023400020D0D1F8003543F08043C1F80035D0F8F3
:10235000103413F47F0F43D1D1F8003523F000433C
:10236000C1F80035D1F8003543F00043C1F800351D
:10237000019B01330193B3F57A7F2DD82368002B9D
:10238000F6DB29E0D1F8003543F08043C1F8003591
:10239000836813F0200F1FD1C36A13F47F0F15D188
:1023A000D1F8003523F00043C1F80035D1F80035ED
:1023B00043F00043C1F80035019B01330193B3F5AD
:1023C0007A7F09D82368002BF6DB05E0D1F80035C9
:1023D00043F00043C1F80035002002B030BC704724
:1023E000D1F8003543F00043C1F80035F4E770B58B
:1023F00082B00546044600230193FFF7F0FC10214C
:102400002846FFF7F3FC064600B101262846FFF7F1
:1024100013FD00B1012600220AE004EB4211D1F8BD
:10242000003523F0802343F08043C1F800350132AA
:102430000F2AF2D9002100E001310F2915D804EB51
:10244000411000F5A062D0F8003523F4004343F0BA
:102450004043C0F80035019B01330193B3F57A7F07
:10246000EAD81368002BF6DBE6E74FF0FF33C5F838
:1024700014346B612846FFF7ACFC304602B070BDE7
:1024800010B5094A136843F480731360032001F008
:102490006BFB0F2002F0ACFC10B10124204610BDF4
:1024A0000446FEF7C1FEF9E700200240034B1B780B
:1024B000034A11680B441360704700BF00000020FE
:1024C000080B0020014B1868704700BF080B002064
:1024D00038B50446FFF7F6FF0546B4F1FF3F02D0DA
:1024E000044B1B781C44FFF7EDFF401BA042FAD3BE
:1024F00038BD00BF0000002030B583B00546204B3A
:102500009B6D13F0805F0BD001F0D8FAB0F5007F1F
:1025100017D0802D1FD82DD0702D2DD000211BE07D
:10252000174CA36D43F08053A365A36D03F0805354
:102530000193019B01F0C2FAA36D23F08053A365C0
:10254000E4E7802D03D9A02D03D9022104E0002166
:1025500002E0012100E003210A4A136823F0070387
:102560000B431360136803F007038B4206D100206E
:1025700003B030BD0221EFE70121EDE70120F7E7CD
:10258000001002400020024070B586B00D4616468D
:102590000F4CE36C43F00103E364E36C03F00103CD
:1025A0000093009B4FF480730193022302930493E2
:1025B00000230393059301A94FF0904001F000F828
:1025C000A26822F0EE4235432A43A26006B070BDF5
:1025D00000100240284A9368D26802F0030213F008
:1025E0000C030AD00C2B06D0042B1FD0082B20D0B4
:1025F0000020024610E0012AF6D11F4A126812F0AC
:10260000080F0CD11C4AD2F89420C2F303221B49B4
:1026100051F8222043B100200C2B0DD07047164AF0
:102620001268C2F30312F2E71046F5E714480022DD
:10263000F2E714480022EFE70F4BDB6803F00303D7
:10264000022B15D0032B15D00B4BD868C0F302100A
:102650000130D968C1F3062102FB01F2B2FBF0F2AE
:10266000D868C0F3416001304000B2FBF0F0D5E71C
:10267000034AE9E7034AE7E700100240D0B3000845
:102680000024F40000127A00002800F00183F0B565
:1026900083B00446AF4B9D6805F00C05DE6806F07C
:1026A0000306036813F0100F5BD0E5B10C2D18D0B2
:1026B000A369002B00F0BC80A64A136843F0010315
:1026C0001360FFF7FFFE0746A24B1B6813F0020FD3
:1026D00040F09B80FFF7F6FEC01B0228F4D90323CD
:1026E000E2E2012EE4D19B4B1B6813F0020F03D0F2
:1026F000A369002B00F0CF82206A964B1B6813F071
:10270000080F5CD0934B1B6803F0F00398425DD830
:10271000904B1A6842F008021A601A6822F0F00220
:10272000216A0A431A605A6822F47F42E16942EA48
:1027300001225A60002D61D0FFF74CFF854B9B684A
:10274000C3F30313844AD35C03F01F03D840834BC5
:102750001860834B186802F04BFB0346002840F0DA
:10276000A382236813F0010F00F08180082D75D03B
:102770000C2D71D06368B3F5803F00F09780B3F5FE
:10278000A02F00F09980734B1A6822F480321A60EF
:102790001A6822F480221A606368002B00F0998086
:1027A000FFF790FE07466B4B1B6813F4003F5ED1AA
:1027B000FFF788FEC01B6428F5D9032374E2654B3C
:1027C000D3F894301B0903F0F0039FE7FFF794FE62
:1027D000002840F062825F4B1A6842F008021A60DB
:1027E0001A6822F0F002216A0A431A605A6822F439
:1027F0007F42E16942EA01225A609DE7206AFFF7C1
:102800007BFE002898D001234EE2524B1A6842F01A
:1028100008021A601A6822F0F002216A0A431A605C
:102820005A6822F47F42E16942EA01225A6098E73D
:10283000484A136823F001031360FFF743FE07467D
:10284000444B1B6813F0020F8BD0FFF73BFEC01BFD
:102850000228F5D9032327E2032E8BD13D4B1B68B9
:1028600013F4003F03D06368002B00F01882236844
:1028700013F0020F4FD0042D3CD00C2D38D0E3685C
:10288000002B78D0334A136843F480731360FFF74A
:1028900019FE06462F4B1B6813F4806F62D1FFF7B9
:1028A00011FE801B0228F5D90323FDE1294A136894
:1028B00043F4803313606FE703F18043A3F53C33A7
:1028C0001A6842F480221A601A6842F480321A6050
:1028D00062E7FFF7F7FD07461E4B1B6813F4003F46
:1028E000C5D0FFF7EFFDC01B6428F5D90323DBE15A
:1028F000022EC4D1174B1B6813F4806F03D0E3681A
:10290000002B00F0CE81134A536823F0F85321695D
:1029100043EA01635360236813F0080F56D06369DC
:10292000002B3CD00B4AD2F8943043F00103C2F89C
:102930009430FFF7C7FD0646064BD3F8943013F0EA
:10294000020F43D1FFF7BEFD801B0228F4D90323F9
:10295000AAE100BF00100240B8B300080800002040
:1029600004000020B84A536823F0F853216943EA71
:1029700001635360CFE7B44A136823F48073136094
:10298000FFF7A0FD0646B04B1B6813F4806FC2D062
:10299000FFF798FD801B0228F5D9032384E1AA4A9A
:1029A000D2F8943023F00103C2F89430FFF78AFD87
:1029B0000646A54BD3F8943013F0020F06D0FFF76C
:1029C00081FD801B0228F4D903236DE1236813F0F5
:1029D000040F7AD09C4B9B6D13F0805F36D19A4BDD
:1029E0009A6D42F080529A659B6D03F0805301937B
:1029F000019B0126954B1B6813F4807F28D0A368A8
:102A0000012B39D0052B3FD08F4BD3F8902022F0EB
:102A10000102C3F89020D3F8902022F00402C3F8FA
:102A20009020A368002B3DD0FFF74CFD0746864B56
:102A3000D3F8903013F0020F46D1FFF743FDC01BCF
:102A400041F288339842F2D903232DE10026D1E7E1
:102A50007E4A136843F480731360FFF733FD074623
:102A60007A4B1B6813F4807FC9D1FFF72BFDC01B85
:102A70000228F5D9032317E1734AD2F8903043F0C6
:102A80000103C2F89030CCE76F4BD3F8902042F0AE
:102A90000402C3F89020D3F8902042F00102C3F85A
:102AA0009020BEE7FFF70EFD0746674BD3F8903046
:102AB00013F0020F08D0FFF705FDC01B41F2883369
:102AC0009842F2D90323EFE06EBBA36A002B00F01B
:102AD000EA80022B2DD00C2D00F0ED805A4B1A68A5
:102AE00022F080721A601B6813F0205F04D1564AEE
:102AF000D36823F00303D360534AD36823F0887369
:102B000023F48033D360FFF7DDFC04464E4B1B6893
:102B100013F0007F00F0BA80FFF7D4FC001B0228FE
:102B2000F4D90323C0E0484A936D23F080539365A2
:102B3000CBE7454BDB6803F00301E26A91420FD01B
:102B40000C2D00F0B480404B1B6813F0806F40F0F8
:102B5000B0803D4B1B6813F0805F2DD00123A3E0B4
:102B600003F07002216B0139B2EB011FE8D103F4CD
:102B7000FE42616BB2EB012FE2D103F40031A26B94
:102B8000073A18BF01229142DAD103F4C001E26B87
:102B90005208013AB1EB425FD2D103F0C063226C1C
:102BA0005208013AB3EB426FCAD1274B1B6813F0AE
:102BB000007F51D0002377E0234A136823F080730D
:102BC0001360FFF77FFC05461F4B1B6813F0007F67
:102BD00006D0FFF777FC401B0228F5D9032363E0FA
:102BE000194AD3681A491940E36A206B013843EA4D
:102BF0000013606B43EA0023E06B4008013843EAAE
:102C00004053206C4008013843EA4063A06B000940
:102C100043EA40430B43D360136843F0807313606F
:102C2000D36843F08073D360FFF74CFC0446064B37
:102C30001B6813F0007F0DD1FFF744FC001B022836
:102C4000F5D9032330E000BF0010024000700040BF
:102C50008C809DF9002327E0184B1A6842F080729F
:102C60001A60DA6842F08072DA60FFF72BFC0446E3
:102C7000124B1B6813F0007F06D1FFF723FC001BEB
:102C80000228F5D903230FE000230DE000230BE019
:102C9000012318467047012306E0012304E00123C5
:102CA00002E0012300E00023184603B0F0BD012339
:102CB000FAE70123F8E70123F6E700BF001002401E
:102CC000002800F0988070B504464F4B1B6803F055
:102CD00007038B420BD24C4A136823F007030B43C4
:102CE0001360136803F007038B4240F086800D46A3
:102CF000236813F0010F39D06368032B09D0022B2E
:102D000026D063BB414A126812F0020F06D101209F
:102D100070E03E4A126812F0007F70D03B498A682A
:102D200022F0030213438B60FFF7CCFB0646374BC0
:102D30009B6803F00C036268B3EB820F16D0FFF7B9
:102D4000C1FB801B41F288339842F0D9032051E047
:102D50002E4A126812F4003FE0D101204AE02B4ACB
:102D6000126812F4806FD9D1012043E0236813F078
:102D7000020F06D0254A936823F0F003A1680B43A5
:102D80009360214B1B6803F00703AB420AD91E4A2C
:102D9000136823F007032B431360136803F0070342
:102DA000AB422ED1236813F0040F06D0174A936864
:102DB00023F4E063E1680B439360236813F0080F8A
:102DC00007D0124A936823F46053216943EAC10390
:102DD0009360FFF7FFFB0D4B9B68C3F303130C4A93
:102DE000D35C03F01F03D8400A4B18600A4B1868E5
:102DF00001F0FEFF70BD012070470120FAE70120BD
:102E0000F8E70120F6E700BF002002400010024072
:102E1000B8B300080800002004000020014B186827
:102E2000704700BF0800002008B5FFF7F7FF054B0B
:102E30009B68C3F30223044AD35C03F01F03D8400A
:102E400008BD00BF00100240C8B3000808B5FFF776
:102E5000E5FF054B9B68C3F3C223044AD35C03F030
:102E60001F03D84008BD00BF00100240C8B30008CF
:102E70000F2303600B4B9A6802F0030242609A68CA
:102E800002F0F00282609A6802F4E062C2609B681D
:102E9000DB0803F4E0630361034B1B6803F00703E3
:102EA0000B6070470010024000200240F8B55A4BFA
:102EB000DB6813F0030F18D0574BDB6803F00303F4
:102EC0000268934202D001242046F8BD002A00F097
:102ED000A080514BDB68C3F3021301334268934275
:102EE00001D00124F0E7002409E00368022B59D047
:102EF000032B5ED0012B44D00124002CE4D10F46DB
:102F00000646454A136823F080631360FFF7DAFA38
:102F10000546414B1B6813F0006F05D0FFF7D2FA4E
:102F2000401B0228F5D90324002CCDD1002F4ED10F
:102F300039490B6923F41F3323F44073B068F268F6
:102F40001209520442EA002213430B61324A136809
:102F500043F080631360FFF7B5FA05462E4B1B68FC
:102F600013F0006F05D1FFF7ADFA401B0228F5D929
:102F70000324002CA8D1284A1369B1690B431361BB
:102F8000A2E7254A126812F0020F1ED0224DEA680D
:102F900022F073024468013C43EA04131343EB60DC
:102FA0000024AAE71C4A126812F4806FEED10124B3
:102FB000A3E7194A126812F4003FE7D1164A1268D3
:102FC00012F4802FE2D1012497E7012495E7012F25
:102FD0000FD01148026922F0C06222F4FE42B168AB
:102FE00073695B08013B5B0643EA012313430361FA
:102FF000ACE70948026922F4C00222F4FE42B1683B
:1030000033695B08013B5B0543EA0123134303611A
:103010009CE7012458E700BF00100240F8B5514B6F
:10302000DB6813F0030F18D04E4BDB6803F003038B
:103030000268934202D001242046F8BD002A00F025
:103040008E80484BDB68C3F302130133426893421E
:1030500001D00124F0E7002409E00368022B59D0D5
:10306000032B5ED0012B44D00124002CE4D10F4669
:1030700006463C4A136823F080531360FFF722FA98
:103080000546384B1B6813F0005F05D0FFF71AFAAE
:10309000401B0228F5D90324002CCDD1002F4ED19E
:1030A00030494B6923F41F3323F44073B068F2684E
:1030B0001209520442EA002213434B61294A136861
:1030C00043F080531360FFF7FDF90546254B1B685D
:1030D00013F0005F05D1FFF7F5F9401B0228F5D981
:1030E0000324002CA8D11F4A536971690B43536113
:1030F000A2E71C4A126812F0020F1ED0194DEA68AE
:1031000022F073024468013C43EA04131343EB606A
:103110000024AAE7134A126812F4806FEED101244A
:10312000A3E7104A126812F4003FE7D10D4A126873
:1031300012F4802FE2D1012497E7012495E7094892
:10314000426922F0C06222F4FE42B16833695B0832
:10315000013B5B0643EA012313434361AEE70124CD
:103160006AE700BF001002402DE9F04182B004463A
:10317000036813F4006F33D0436EB3F5800F29D08A
:1031800011D9B3F5000F1ED0B3F5400F18D10027A9
:10319000664AD2F8883023F44003616E0B43C2F8CC
:1031A000883000261EE043B900210430FFF77EFE80
:1031B0000746002FECD03E4614E00126374611E0CA
:1031C000012637460EE0594AD36843F48033D36072
:1031D0000027DDE700212030FFF720FF0746E8E762
:1031E00000263746236813F4805F15D0A36EB3F131
:1031F000807F7DD069D9B3F1007F73D0B3F1407F78
:103200006DD1002F7BD1494AD2F8883023F040732A
:10321000A16E0B43C2F88830236813F4003F00F01E
:103220008E80424B9B6D13F0805F6AD13F4B9A6D4D
:1032300042F080529A659B6D03F080530193019B8D
:103240004FF001083A4A136843F480731360FFF7A4
:1032500039F90546364B1B6813F4807F05D1FFF71B
:1032600031F9401B0228F5D90327002F62D12F4BDB
:10327000D3F8903013F4407316D0D4F884209A42D7
:1032800012D02A4AD2F8903023F44073D2F890102A
:1032900041F48031C2F89010D2F8901021F48031BE
:1032A000C2F89010C2F8903013F0010F2CD1002F0B
:1032B00040F043811D4AD2F8903023F44073D4F893
:1032C00084100B43C2F8903035E02BB90021201D4B
:1032D000FFF7ECFD074694E7012637469CE70126F9
:1032E000374699E7114AD36843F48033D36088E7BF
:1032F000002104F12000FFF791FE074681E73E46DA
:103300008AE74FF000089DE7FFF7DCF80546074B1A
:10331000D3F8903013F0020FC9D1FFF7D3F8401B58
:1033200041F288339842F2D90327C0E700100240E7
:10333000007000403E46B8F1000F40F00081236865
:1033400013F0010F08D09D4AD2F8883023F0030310
:10335000A16B0B43C2F88830236813F0020F08D02A
:10336000964AD2F8883023F00C03E16B0B43C2F885
:103370008830236813F0040F08D0904AD2F88830C0
:1033800023F03003216C0B43C2F88830236813F01C
:10339000080F08D0894AD2F8883023F0C003616C46
:1033A0000B43C2F88830236813F0100F08D0834A0B
:1033B000D2F8883023F44073A16C0B43C2F88830F4
:1033C000236813F0200F08D07C4AD2F8883023F409
:1033D0004063E16C0B43C2F88830236813F4007F2C
:1033E00008D0764AD2F8883023F44023E16D0B43AD
:1033F000C2F88830236813F4806F08D06F4AD2F87F
:10340000883023F44013216E0B43C2F888302368C0
:1034100013F0400F08D0694AD2F8883023F44053A3
:10342000216D0B43C2F88830236813F0800F08D059
:10343000624AD2F8883023F44043616D0B43C2F8EE
:103440008830236813F4807F08D05C4AD2F8883033
:1034500023F44033A16D0B43C2F88830236813F482
:10346000005F0FD0554AD2F8883023F04063E16EF8
:103470000B43C2F88830E36EB3F1006F65D0B3F14F
:10348000806F67D0236813F4002F0FD04B4AD2F817
:10349000883023F04063216F0B43C2F88830236FDC
:1034A000B3F1006F5ED0B3F1806F60D0236813F486
:1034B000802F0FD0414AD2F8883023F04063616FEB
:1034C0000B43C2F88830636FB3F1006F57D0B3F18C
:1034D000806F59D0236813F4804F0FD0374AD2F849
:1034E000883023F04053A16F0B43C2F88830A36F9C
:1034F000B3F1805F50D0B3F1005F55D0236813F46F
:10350000004F08D02D4AD2F8883023F08043E16F75
:103510000B43C2F88830236813F4803F09D0274A50
:10352000D2F8883023F00043D4F880100B43C2F85F
:103530008830304602B0BDE8F0813E46FBE61F4AC7
:10354000936D23F080539365F9E6D36843F48013B9
:10355000D36097E70121201DFFF7A8FC002891D038
:1035600006468FE7D36843F48013D3609EE70121BA
:10357000201DFFF79BFC002898D0064696E7D368ED
:1035800043F48013D360A5E70121201DFFF78EFCD3
:1035900000289FD006469DE70221201DFFF786FCEC
:1035A0000028ABD00646A9E7022104F12000FFF76E
:1035B00035FD0028A2D00646A0E700BF001002405B
:1035C000F0B482B0002364E086685F000325BD404C
:1035D00026EA0506CD68BD4035438560466826EA83
:1035E00004064D68C5F300159D40354345605EE017
:1035F000C66A26EA0406C5F3C0049C403443C4628C
:103600005AE0DD08083550F8257003F00704A600DD
:103610000F24B44027EA04070C69B4403C4340F847
:1036200025405DE0062400E00024B4403C43023520
:10363000544E46F82540544CA568D44304EA050688
:103640004F6817F4801F01D042EA05064E4DAE6068
:10365000ED6804EA05064F6817F4001F01D042EA3E
:103660000506494DEE606D6804EA05064F6817F4DB
:10367000003F01D042EA0506434D6E602D682C40A4
:103680004E6816F4803F01D042EA05043E4A1460B9
:1036900001330A6832FA03F470D001249C402240BE
:1036A000F6D04D6805F00305013D012D8CD94D681C
:1036B00005F00306032E9BD04C6804F00304032C92
:1036C00009D0C5685E000324B44025EA04058C686F
:1036D000B4402C43C4604C6804F00304022C90D026
:1036E00005685E000324B44025EA04054C6804F034
:1036F0000304B4402C4304604C6814F4403FC7D02A
:10370000224C256E45F001052566246E04F0010467
:103710000194019C9D08AE1C1A4C54F8267003F0CD
:103720000304A6000F24B44027EA0407B0F1904F29
:103730003FF47AAF164CA04216D004F58064A04244
:1037400014D004F58064A04212D004F58064A04235
:1037500010D004F58064A0420ED004F58064A0422D
:103760003FF460AF072460E701245EE702245CE7D2
:1037700003245AE7042458E7052456E702B0F0BCB6
:10378000704700BF000001400004014000100240EB
:10379000000400480369194201D00120704700204D
:1037A00070470AB18161704781627047436901EADD
:1037B000030221EA030141EA02418161704770B4CA
:1037C000446C04F01C05066C0124AC407460046871
:1037D00063608368102B05D0036899600368DA6022
:1037E00070BC704703689A600368D960F8E700000E
:1037F000002868D010B403460068344A904244D888
:10380000334A02443349A1FB0212120992005A645E
:10381000314A1A64022283F82520016821F4FF410D
:1038200021F070019A68DC6822431C6922435C69BC
:1038300022439C692243DC6922431C6A22430A43D7
:1038400002609A68B2F5804F15D0196C224A9142F5
:1038500026D0224A1168586C00F01C040F20A040AA
:1038600021EA00011160116858685C6C04F01C04C6
:10387000A040014311600020D863012283F8252075
:1038800083F824005DF8044B7047154A024411493F
:10389000A1FB0212120992005A64124A1A64B9E793
:1038A000A8321168586C00F01C040F20A04021EAD7
:1038B00000011160116858685C6C04F01C04A040A1
:1038C00001431160D7E70120704700BF07040240A1
:1038D000F8FFFDBFCDCCCCCC00000240A8040240D4
:1038E000F8FBFDBF0004024038B590F82440012CDD
:1038F00033D0012480F8244090F82540E4B2012C14
:1039000004D0002380F82430022038BD0446022071
:1039100084F825000020E0632568286820F0010075
:1039200028602046FFF74BFF236B5BB122681368CA
:1039300043F00E0313602268136843F00103136021
:103940000020E2E72268136823F004031360226872
:10395000136843F00A031360EDE70220D5E790F8FF
:103960002530DBB2022B06D00423C363002380F88A
:103970002430012070470268136823F00E0313609F
:103980000268136823F001031360436C03F01C0307
:10399000016C012202FA03F34B6080F8252000231A
:1039A00080F824301846704708B590F82530DBB20F
:1039B000022B03D00423C363012008BD02681368EF
:1039C00023F00E0313600268136823F001031360F1
:1039D000436C03F01C03016C012202FA03F34B60F9
:1039E00080F82520002380F82430836B13B198479A
:1039F0000020E2E70020E0E738B5036C19680468AE
:103A00002568436C03F01C0304229A400A4215D037
:103A100015F0040F12D0236813F0200F03D1236890
:103A200023F004032360436C03F01C02016C0423A5
:103A300093404B60036B03B1984738BD02229A4014
:103A40000A421CD015F0020F19D0236813F0200F82
:103A500006D1236823F00A032360012380F8253070
:103A6000436C03F01C02016C022393404B60002363
:103A700080F82430C36A002BDFD09847DDE70822A6
:103A800002FA03F30B42D8D015F0080FD5D0236803
:103A900023F00E032360436C03F01C03016C01222E
:103AA00002FA03F34B60C26380F82520002380F8FC
:103AB0002430436B002BC0D09847BEE7024B1868F8
:103AC00000F4C060704700BF00700040B0F5007F98
:103AD0000FD01E4B1B6803F4C063B3F5806F33D067
:103AE0001A4A136823F4C06343F480631360002010
:103AF0007047164B1B6803F4C063B3F5007F1FD0FB
:103B0000124A136823F4C06343F400731360104B2C
:103B10001A68322303FB02F30E4AA2FB03239B0C19
:103B200001330A4A526912F4806F02D00BB1013B93
:103B3000F7E7064B5B6913F4806F03D100207047F1
:103B4000002070470320704700207047007000403D
:103B50000800002083DE1B43024A536843F480635D
:103B60005360704700700040074AD36823F4E06355
:103B70001B041B0C000200F4E060184340F0BF601F
:103B800040F40030D060704700ED00E030B4174BD7
:103B9000DB68C3F30223C3F10704042C28BF042409
:103BA0001D1D062D01D9033B00E000234FF0FF351A
:103BB00005FA04F421EA0401994005FA03F322EA24
:103BC00003031943002809DB0901C9B200F1604071
:103BD00000F5614080F8001330BC704700F00F0022
:103BE0000901C9B2024B1954F6E700BF00ED00E02D
:103BF00014ED00E0002807DB00F01F02400901235C
:103C00009340024A42F82030704700BF00E100E0D4
:103C10007047000090F83D30DBB2012B36D1022313
:103C200080F83D300268D36843F00103D360036835
:103C3000194A93421CD0B3F1804F19D0A2F59432A7
:103C4000934215D002F58062934211D002F5806252
:103C500093420DD002F59432934209D002F54062AE
:103C6000934205D01A6842F001021A6000207047A2
:103C700099680A4A0A40062A0AD0B2F5803F09D05C
:103C80001A6842F001021A60002070470120704754
:103C90000020704700207047002C01400700010001
:103CA000704770477047704710B5044603681A693B
:103CB00012F0020F11D0DA6812F0020F0DD06FF07F
:103CC00002021A610123037703689B6913F0030F53
:103CD00079D0FFF7E6FF0023237723681A6912F0F3
:103CE000040F12D0DA6812F0040F0ED06FF0040245
:103CF0001A610223237723689B6913F4407F68D0FD
:103D00002046FFF7CEFF0023237723681A6912F0BD
:103D1000080F12D0DA6812F0080F0ED06FF0080208
:103D20001A61042323772368DB6913F0030F57D04C
:103D30002046FFF7B6FF0023237723681A6912F0A5
:103D4000100F12D0DA6812F0100F0ED06FF01002C0
:103D50001A61082323772368DB6913F4407F46D078
:103D60002046FFF79EFF0023237723681A6912F08D
:103D7000010F03D0DA6812F0010F3FD123681A69EE
:103D800012F0800F03D0DA6812F0800F3DD1236863
:103D90001A6912F4807F03D0DA6812F0800F3BD1E9
:103DA00023681A6912F0400F03D0DA6812F0400F4E
:103DB00039D123681A6912F0200F03D0DA6812F0A3
:103DC000200F37D110BDFFF76BFF2046FFF76AFFCA
:103DD00081E72046FFF764FF2046FFF763FF92E785
:103DE0002046FFF75DFF2046FFF75CFFA3E7204674
:103DF000FFF756FF2046FFF755FFB4E76FF00102CB
:103E00001A612046FCF710FFB8E76FF080021A61D4
:103E1000204600F0EEF9BAE76FF480721A6120468E
:103E200000F0E8F9BCE76FF040021A612046FFF7A6
:103E30003AFFBEE76FF020021A61204600F0D8F981
:103E4000C0E700000368304A904212D0B0F1804FC2
:103E50000FD0A2F5943290420BD002F580629042CE
:103E600007D002F58062904203D002F5943290426E
:103E700003D123F070034A681343234A90421ED0B3
:103E8000B0F1804F1BD0A2F59432904217D002F5CA
:103E90008062904213D002F5806290420FD002F50A
:103EA000943290420BD002F54062904207D002F566
:103EB0008062904203D002F58062904203D123F4E5
:103EC0004073CA68134323F080034A6913430360B5
:103ED0008B68C3620B6883620B4B98420FD003F56B
:103EE000006398420BD003F54063984207D003F576
:103EF0008063984203D003F58063984201D10B6937
:103F00000363012343617047002C014060B310B587
:103F1000044690F83D3013B3022384F83D30214627
:103F200051F8040BFFF78EFF012384F8483084F822
:103F30003E3084F83F3084F8403084F8413084F8D3
:103F4000423084F8433084F8443084F8453084F8B3
:103F5000463084F8473084F83D30002010BD80F8AA
:103F60003C30FFF755FED7E70120704750B338B516
:103F700004460D4690F83D30FBB1022384F83D30F5
:103F8000214651F8040BFFF75DFF2268136823F008
:103F900008031360226813682B431360012384F81D
:103FA000483084F83E3084F83F3084F8443084F858
:103FB000453084F83D30002038BD80F83C3003F0B7
:103FC0008FFEDAE70120704710B401F01F010123D2
:103FD00003FA01F4036A23EA04030362036A8A40D2
:103FE000134303625DF8044B704700000A46002942
:103FF0004ED190F83E30DBB213F1FF3318BF0123EE
:10400000002B40F09F8010B5002A71D1022380F868
:104010003E301146044601220068FFF7D5FF2368B1
:104020004B4A93420FD002F5006293420BD002F547
:104030004062934207D002F58062934203D002F5BA
:104040008062934203D15A6C42F400425A6423685E
:104050003F4A934268D0B3F1804F65D0A2F59432C5
:10406000934261D002F5806293425DD002F5806296
:10407000934259D002F59432934255D002F54062F2
:10408000934251D01A6842F001021A60002058E0B1
:1040900004290DD0082913D00C2919D010291FD0BC
:1040A00090F84330DBB213F1FF3318BF0123A7E7C9
:1040B00090F83F30DBB213F1FF3318BF01239FE7C5
:1040C00090F84030DBB213F1FF3318BF012397E7BC
:1040D00090F84130DBB213F1FF3318BF01238FE7B3
:1040E00090F84230DBB213F1FF3318BF012387E7AA
:1040F000042A09D0082A0BD00C2A0DD0102A0FD080
:10410000022380F8433084E7022380F83F3080E7C1
:10411000022380F840307CE7022380F8413078E7C2
:10412000022380F8423074E799680A4A0A40062A56
:104130000AD0B2F5803F09D01A6842F001021A6035
:10414000002010BD012070470020FAE70020F8E7AA
:10415000002C01400700010090F83C30012B42D0B8
:1041600030B4012380F83C30022380F83D300268EF
:10417000536895681D4CA24203D004F50064A24226
:1041800003D123F470034C68234323F070030C68BD
:10419000234353600368154A934216D0B3F1804F0E
:1041A00013D0A2F5943293420FD002F5806293426D
:1041B0000BD002F58062934207D002F5943293420D
:1041C00003D002F54062934204D125F080058A684D
:1041D00015439D60012380F83D30002380F83C307A
:1041E000184630BC70470220704700BF002C0140C9
:1041F000704770477047026852E8003F23F0C003E1
:1042000042E800310029F6D1202383677047026815
:1042100052E8003F23F4907342E800310029F6D1C0
:10422000026802F1080353E8003F23F0010308325B
:1042300042E800310029F3D1036E012B05D0202381
:10424000C3670023036643667047026852E8003F75
:1042500023F0100342E800310029F6D1EFE7000017
:1042600010B5846F202C48D1002948D0002A48D0AE
:1042700090F87430012B46D013460446012280F892
:104280007420C164A0F85030A0F852300022C0F869
:10429000802021228267C26EDAB11C49D162C26ECF
:1042A0001B491163C26E1B495163C26E00219163A9
:1042B00002682832C16CC06EFFF716FB48B11023AC
:1042C000C4F88030002384F874302023A3670120D1
:1042D00014E0236840221A62002384F874302268B4
:1042E00002F1080353E8003F43F08003083242E83C
:1042F00000310029F3D1002000E0022010BD012090
:10430000FCE70120FAE70220F8E700BF1B430008A2
:104310008743000893430008704708B5816A036823
:104320001B6813F0200F18D10023A1F852300A683F
:1043300002F1080353E8003F23F08003083242E80B
:1043400000300028F3D10A6852E8003F43F04003F0
:1043500042E800300028F6D108BD0846FFF7DCFF30
:10436000FAE708B5026852E8003F23F0400342E84C
:1043700000310029F6D12023836700238366FFF7ED
:10438000CBFF08BD704708B5806AFFF7FBFF08BD8B
:10439000704738B5846AA26FE56F23689B6813F095
:1043A000800F01D0212A10D023689B6813F0400FA2
:1043B00001D0222D10D0D4F8803043F01003C4F87F
:1043C00080302046FFF7E4FF38BD0023A4F85230C8
:1043D0002046FFF710FFE7E70023A4F85A302046F5
:1043E000FFF715FFE7E708B5806A0023A0F85A3009
:1043F000A0F85230FFF7CCFF08BD704770B50446F7
:104400000168CB6908688D6840F60F021A4005D133
:1044100013F0200F02D010F0200F20D12AB115F098
:10442000010222D1AB4E30421FD1226E012A00F090
:10443000AB8013F4801F03D015F4800F40F0378158
:1044400013F0800F03D010F0800F40F0378113F08D
:10445000400F03D010F0400F40F0378170BD636E05
:10446000002BFBD020469847F8E713F0010F09D046
:1044700010F4807F06D001250D62D4F88010294306
:10448000C4F8801013F0020F09D042B12168022550
:104490000D62D4F8801041F00401C4F8801013F0CC
:1044A000040F09D042B1216804250D62D4F88010B0
:1044B00041F00201C4F8801013F0080F0BD010F087
:1044C000200F00D13AB1226808211162D4F880206F
:1044D0000A43C4F8802013F4006F0CD010F0806FF2
:1044E00009D022684FF400611162D4F8802042F0B4
:1044F0002002C4F88020D4F88020002AAED013F027
:10450000200F06D010F0200F03D0636E0BB12046B1
:104510009847D4F8802023689B6813F0400F02D19D
:1045200012F0280F29D02046FFF771FE23689B6800
:1045300013F0400F1DD0226802F1080353E8003F3A
:1045400023F04003083242E800310029F3D1236F01
:104550005BB1614A9A63206FFFF726FA00283FF4A7
:104560007DAF206F836B984778E72046FFF710FFF9
:1045700074E72046FFF70CFF70E72046FFF708FFBF
:104580000023C4F8803069E713F0100F3FF451AFF7
:1045900010F0100F3FF44DAF10230B6223689B689F
:1045A00013F0400F4DD0226F13685B689BB2002B55
:1045B0003FF454AFB4F8581099427FF64FAFA4F8C7
:1045C0005A3013681B6813F0200F30D1226852E86C
:1045D000003F23F4807342E800310029F6D12268BD
:1045E00002F1080353E8003F23F00103083242E8D8
:1045F00000310029F3D1226802F1080353E8003F9B
:1046000023F04003083242E800310029F3D120238F
:10461000E36700232366226852E8003F23F010037B
:1046200042E800310029F6D1206FFFF798F9B4F87D
:104630005810B4F85A30C91A89B22046FFF7DDFE87
:104640000CE7B4F85810B4F85A30C91A89B2B4F863
:104650005A309BB2002B3FF401AF00293FF4FEAE6D
:10466000226852E8003F23F4907342E800300028AB
:10467000F6D1226802F1080353E8003F23F001035A
:10468000083242E800300028F3D12023E3670023FA
:1046900023666366226852E8003F23F0100342E875
:1046A00000300028F6D12046FFF7A7FED6E64FF4EB
:1046B00080130B62204600F04BFBCFE6A36E002B6D
:1046C0003FF4CCAE20469847C8E62046FFF749FEA7
:1046D000C4E600BF20010004E74300082DE9D848E4
:1046E0000446016883680269134342691343C2693F
:1046F000134308688F4A024013430B6022685368D3
:1047000023F44053E1680B435360A16922688A4B4C
:104710009A4201D0236A1943936823F430630B4310
:1047200093602368854A934211D0854A934222D0F0
:10473000844A934238D0844A934260D0834A934259
:1047400073D07D4A934200F0898010223FE002F549
:104750005842D2F8882002F00302032A09D8DFE881
:1047600002F002049606012231E004222FE0082222
:104770002DE010222BE002F5E632D2F8882002F07C
:104780000C020C2A0ED8DFE802F0070D0D0D090D02
:104790000D0D840D0D0D0B00002218E0042216E013
:1047A000082214E0102212E002F5E432D2F8882048
:1047B00002F03002102A6ED005D9202A6DD0302A9E
:1047C0001BD1082203E00AB9002200E010225A4956
:1047D0008B4270D0E369B3F5004F00F09F80082A48
:1047E00000F20D81DFE812F0DD00F400DB000B01C8
:1047F000F7000B010B010B01FA001022E7E702F5AD
:10480000E232D2F8882002F0C002402A47D005D90F
:10481000802A46D0C02A06D10822D8E70AB9002249
:10482000D5E71022D3E71022D1E702F5E032D2F823
:10483000882002F44072B2F5807F34D007D9B2F5F7
:10484000007F32D0B2F5407F06D10822BFE70AB917
:104850000022BCE71022BAE71022B8E702F5C832FE
:10486000D2F8882002F44062B2F5806F1FD007D9D9
:10487000B2F5006F1DD0B2F5406F06D10822A6E751
:104880000AB90022A3E71022A1E710229FE7022223
:104890009DE702229BE7042299E7022297E7042280
:1048A00095E7022293E7042291E702228FE7042290
:1048B0008DE702228BE7082A00F29380DFE802F0FE
:1048C000089110910D91919105004FF4004008E07E
:1048D000FEF7AAFA28B9002075E0FDF77BFEF9E79C
:1048E0001B48626802EB420383427CD8B0EB023F74
:1048F0007BD80023070E0602500816EB000B47F189
:10490000000C58466146FCF72FF9A0F54072114B98
:104910009A426CD82368D860002054E0082A68D8EE
:10492000DFE802F01A340567376767673A0008481E
:1049300016E000BFF369FFEF00800040003801403F
:104940000044004000480040004C0040005000403F
:104950000024F400FFFC0F00FEF766FA00284AD09E
:104960006268530803EB4000B0FBF2F0A0F11002C4
:104970004FF6EF739A4240D883B223F00F03C0F38F
:10498000420018432368D86000201CE0FEF75EFA5E
:10499000E4E7FDF71FFEE1E74FF40040E0E71B48C6
:1049A00002E0FEF741FA60B3636800EB5300B0FB2E
:1049B000F3F0A0F110024FF6EF739A4223D8236868
:1049C00080B2D860002000236366A366BDE8D88863
:1049D000FEF73CFAE7E7FDF7FDFDE4E74FF40040A2
:1049E000E2E70120EFE70120EDE70120EBE70120FE
:1049F000E9E70120E7E70020E5E70120E3E7012000
:104A0000E1E70020DFE70120DDE700BF0024F4003C
:104A1000436A13F0010F06D00268536823F4003391
:104A2000816A0B435360436A13F0020F06D0026899
:104A3000536823F48033C16A0B435360436A13F015
:104A4000040F06D00268536823F48023016B0B43E4
:104A50005360436A13F0080F06D00268536823F4CA
:104A60000043416B0B435360436A13F0100F06D0B1
:104A70000268936823F48053816B0B439360436A0D
:104A800013F0200F06D00268936823F40053C16B23
:104A90000B439360436A13F0400F0AD002685368D7
:104AA00023F48013016C0B435360036CB3F5801F38
:104AB0000BD0436A13F0800F06D00268536823F4CA
:104AC0000023816C0B43536070470268536823F4E2
:104AD000C003416C0B435360EBE72DE9F041044602
:104AE0000F4616469846069D2368DB6937EA03039E
:104AF0000CBF01230023B34251D1B5F1FF3FF3D0E6
:104B0000FDF7E0FCA0EB0800A8422BD855B32368C2
:104B10001A6812F0040FE7D0DA6912F4006FE3D0DC
:104B20004FF400621A62226852E8003F23F4D07307
:104B300042E800310029F6D1226802F1080353E867
:104B4000003F23F00103083242E800310029F3D18D
:104B50002023A367E367C4F88030002384F874300F
:104B600003201DE0226852E8003F23F4D07342E89E
:104B700000310029F6D1226802F1080353E8003F12
:104B800023F00103083242E800310029F3D1202349
:104B9000A367E367002384F87430032000E000205B
:104BA000BDE8F0812DE9F04182B01E46836F202BD5
:104BB00056D104460D469046002956D0002A56D0BC
:104BC00090F87430012B54D0012380F87430002306
:104BD000C0F8803021238367FDF774FC0746A4F8F2
:104BE0005080A4F85280A368B3F5805F05D04FF0E1
:104BF0000008002384F8743013E0236913B14FF0E8
:104C00000008F6E7A8460025F3E738F8023B2268DB
:104C1000C3F308031385B4F85230013B9BB2A4F8E8
:104C20005230B4F852309BB273B100963B4600222A
:104C300080212046FFF751FFE8B9002DE5D0236819
:104C400015F8012B1A85E6E700963B460022402125
:104C50002046FFF742FF034678B92022A26700E012
:104C60000223184602B0BDE8F0810123F9E70123D1
:104C7000F7E70223F5E70323F3E70323F1E730B572
:104C800083B004460023C0F88030FDF71BFC0546C6
:104C900023681B6813F0080F0DD123681B6813F0FD
:104CA000040F16D12023A367E3670020206684F851
:104CB000740003B030BD6FF07E43009303460022C2
:104CC0004FF400112046FFF708FF0028E5D003202D
:104CD000EFE76FF07E4300932B4600224FF48001F4
:104CE0002046FFF7FAFE0028DCD00320E1E768B396
:104CF00010B50446836F03B32423A36722681368A7
:104D000023F0010313602046FFF7E8FC012813D0CD
:104D1000636ABBB92268536823F4904353602268E6
:104D2000936823F02A0393602268136843F0010319
:104D300013602046FFF7A3FF10BD80F87430FCF726
:104D40009FF9D9E72046FFF763FEE3E701207047AC
:104D5000704700000F49D1F8883043F47003C1F860
:104D600088300D4B1A6842F001021A6000209860EA
:104D70001A6822F0A85222F410221A604FF48052CE
:104D8000DA601A6822F480221A6098614FF000639A
:104D90008B60704700ED00E00010024000B583B06A
:104DA000124B9A6C42F001029A649B6C03F001036F
:104DB0000193019B002211460F20FEF7E7FE0F2012
:104DC000FEF718FF002211461020FEF7DFFE10202C
:104DD000FEF710FF002211461120FEF7D7FE11202A
:104DE000FEF708FF03B05DF804FB00BF00100240AF
:104DF00000B589B0002201463720FEF7C7FE3720F4
:104E0000FEF7F8FE144B9A6D42F020029A659B6DF6
:104E100003F020030193019B02A903A8FEF728F8E1
:104E2000FEF702F80D4BA3FB00239B0C013B0C4843
:104E30000C4A026040F2E732C26043600023036123
:104E40008360FFF763F818B1012009B05DF804FB37
:104E50000348FEF7DFFEF8E70010024083DE1B4345
:104E60000C0B00200014004004290CD0052902D0AE
:104E7000022904D07047064B03221A707047044B76
:104E800002221A707047024B01221A70F2E700BF2B
:104E90001D0900202DE9F04F91B0804601F08CFDF6
:104EA00003280ED0404601F087FD012800F08D80D8
:104EB000404601F081FD022800F0218111B0BDE8DB
:104EC000F08F404601F0FAFF81460028F6D00168D5
:104ED0004368AF4A1068AF4A12689A4208BF8842D6
:104EE00008D1D9F80020AA4B1A60D9F80420A94BA0
:104EF0001A60D7E799F80A2099F90B3043EA420380
:104F00005BB299F8092043EA82035BB299F8082062
:104F100043EAC2035BB299F80C2043EA02135BB286
:104F200099F80D2043EA42135BB299F80E2043EA48
:104F300082135BB299F80F2043EAC213964C237098
:104F400002220121204603F083F8D9F80420D9F881
:104F50000010924804F0F8F899F808300D9399F889
:104F600009200E9299F80A000F9099F80B0099F811
:104F70000C3099F80D5099F80E6099F80F7099F867
:104F800010C099F811E099F8122099F8131099F8C7
:104F900014A099F815B0CDF828B0CDF824A0089148
:104FA0000792CDF818E0CDF814C004970396029547
:104FB000019300900F9B0E9A0D99794804F0C4F864
:104FC0002178784804F0C0F88BE7774B1B78012BE9
:104FD0007BD1764A136801331360734B01221A7038
:104FE000404601F0F3FE90F9003007EE903AF8EEFB
:104FF000E77ADFED6F6A67EEA67A6E4B93ED007A83
:1050000077EE877AC3ED007A90F9013007EE103A17
:10501000B8EEC77A27EE267A674BD3ED006A36EEF4
:10502000C77A83ED007AF5EEC07AF1EE10FA50D42B
:10503000604BD3ED006ADFED617AF4EEE76AF1EEE2
:1050400010FA01DD00221A60B5EEC07AF1EE10FA16
:1050500043D4594B93ED007ADFED587AB4EEE77AFA
:10506000F1EE10FA01DD00221A608378012B38D0AE
:10507000FF2B3BD0524A504BD3ED007AFCEEE77A3F
:1050800017EE903A13704B4BD3ED007AFCEEE77AB3
:1050900017EE903A53704B4B1B781B0143F00803FB
:1050A0005BB2C278002A08BF43F00103027912BB49
:1050B00002221343427902BB042213434048837007
:1050C0000122032102F0C4FFF2E6002103F00CF8F4
:1050D0007FE7384B3C4A1A60AAE7374B3A4A1A60D6
:1050E000B7E738490A7801320A70C1E7354A1378C0
:1050F000013B1370BEE70022DBE70022DDE7334807
:1051000004F0BCF80A2004F037F8274B02221A708A
:10511000404601F0E1FD0446417A827AC37A007B81
:10512000657BA67B029601950090294804F00CF857
:10513000A3780BB9A37913B1E02002F029FE6378BC
:105140000BB9637913B1E12002F022FEE3780BB9C9
:10515000E37913B1E22002F01BFE607A60B9A07A15
:1051600068B9E07A70B9207B78B9607B90BBA07B8E
:1051700098BB02F039FFA1E602F00AFEEFE702F069
:1051800007FEEEE702F004FEEDE702F001FEECE7B9
:10519000300F0020340F00201E09002000B400084A
:1051A00018B4000888B40008EE090020F0090020B7
:1051B0003D0AD73E240900202809002000007F4333
:1051C000200900202309002000007F4398B4000834
:1051D000A0B4000802F0DCFDC9E702F0D9FDC8E781
:1051E00008B501220B490C4800F09CFB48B90B495B
:1051F000094800F0C3FB38B9074800F095FC30B906
:1052000008BDFBF71DFDF2E7FBF71AFDF4E7FBF71E
:1052100017FDF5E7694E0008580B00200C00002030
:1052200008B5024800F08AFC08BD00BF580B0020FA
:1052300010B588B000230393049305930693079356
:105240000368B3F1A04F01D008B010BD244CE36C4B
:1052500043F00103E364E36C03F001030093009B5C
:105260004FF40073039303A94FF09040FEF7A8F9A1
:105270004FF4C053039302230493002305930323A5
:1052800006930A23079303A94FF09040FEF798F97D
:10529000E36C43F48053E364E36C03F480530193C1
:1052A000019BA36D13F0805F17D1A36D43F0805372
:1052B000A365A36D03F080530293029BFEF74CFCA1
:1052C000A36D23F08053A365002211464320FEF70F
:1052D0005DFC4320FEF78EFCB6E7FEF73DFCF3E7EE
:1052E0000010024008B5D0F8000300F0FCFD08BD36
:1052F00008B5D0F8000300F007FE08BD08B5D0F8E7
:10530000000300F00BFE08BD704708B5D0F800039D
:1053100000F0F2FD08BD08B5D0F8000300F0F0FD84
:1053200008BD000090F8CC33012B01D0002070475D
:1053300010B504460F48C0F80043C4F8D0034FF03E
:10534000A0430360082383600123C360002303613B
:1053500002228261C361FCF727F840B90548FCF7D7
:10536000ECFC0146204600F0BBFD002010BDFBF721
:1053700067FCF3E7380F002008B5D0F8D003FCF73E
:10538000E1FC012804D028B1022805D0012008BD85
:105390000120FCE70020FAE70220F8E708B5D0F882
:1053A000D003FCF7C5FC08BD08B5D0F8D003FCF766
:1053B000B9FC08BD08B590F8CC33012B04D0C82047
:1053C000FDF786F8002008BD084600F06EF8F6E705
:1053D000D0F8D0032C2303FB010393F83B3033B107
:1053E0002C2303FB010181F85420002070472C235B
:1053F00003FB010181F85520F7E708B5FDF768F8D0
:1054000008BD022807D8DFE800F0020604000020EB
:105410007047012070470220704708B5D0F8D003CC
:10542000FCF754FCFFF7EDFF08BD08B5D0F8D0033A
:10543000FCF761FCFFF7E5FF08BD08B5D0F8D00325
:10544000FCF76BFCFFF7DDFF08BD10B584B0D0F8AA
:10545000D003BDF8204002949DF81C4001949DF8B3
:1054600018400094FBF747FFFFF7CBFF04B010BDD7
:1054700008B5D0F8D003FBF785FFFFF7C2FF08BDE2
:1054800010B584B0D0F8D0039DF824400394BDF843
:1054900020400294079C01949DF818400094FBF76B
:1054A000CDFFFFF7AEFF04B010BD08B538B901223B
:1054B0004FF480614FF09040FEF773F908BD002271
:1054C000F6E7002306E003F1E00200EB8202002190
:1054D000516001330E2BF6D90023B3F5007F05D2BE
:1054E000C218002182F81C110133F6E70023037073
:1054F000437001228270C0F8C4330276402181716A
:10550000437680F81C3380F81D2380F81F3380F821
:105510001E331846704708B50378DBB20B2B00D05A
:1055200008BDD0F87C33002BFAD09B699847F7E789
:1055300070B584B004464378072B00F2ED81DFE8B4
:1055400013F008005A009E00E7001B0150017D0186
:10555000AA01082100F008FF28B1032824D0012463
:10556000204604B070BD94F82D33A37101256570F9
:1055700002930026019694F81D33009394F81C338F
:1055800080222179204600F0D8FFA379029301966A
:1055900094F81D33009394F81C3332466179204609
:1055A00000F0CBFF2C46DBE7C24803F0CDFDC2483C
:1055B00003F0CAFD0A2003F0DFFD94F81E33013327
:1055C000DBB284F81E33032B09D9BC4803F0BCFDC1
:1055D0000A2003F0D1FD0D2323700124C0E7617977
:1055E000204600F0D2FF2179204600F0CEFF0023B4
:1055F00023700124B4E7122100F0B6FE18B103288D
:1056000015D00124ACE7B4F83013AD4803F09CFD8D
:105610000A2003F0B1FDB4F82E13AA4803F094FD5C
:105620000A2003F0A9FD02236370012498E7A14832
:1056300003F08AFDA44803F087FD0A2003F09CFDD7
:1056400094F81E330133DBB284F81E33032B09D9DF
:105650009A4803F079FD0A2003F08EFD0D23237094
:1056600001247DE76179204600F08FFF21792046F3
:1056700000F08BFF002363702370012470E7012189
:1056800000F0BCFE18B103282DD0012468E70220E9
:10569000FFF7B3FE012584F81C5329468B4803F01D
:1056A00053FD0A2003F068FD03236370A37902937E
:1056B0000026019694F81D33009394F81C33802241
:1056C0002179204600F039FFA3790293019694F8DE
:1056D0001D33009394F81C3332466179204600F064
:1056E0002CFF2C463CE7734803F02EFD784803F06E
:1056F0002BFD0A2003F040FD704803F025FD0A2031
:1057000003F03AFD0D23237000236370012427E783
:10571000092100F042FE18B90423637001241FE739
:10572000032801D001241BE7624803F00DFD6948FE
:1057300003F00AFD0A2003F01FFD94F81E33013325
:10574000DBB284F81E33032B09D95C4803F0FCFC60
:105750000A2003F011FD0D232370012400E7617975
:10576000204600F012FF2179204600F00EFF0023B2
:10577000637023700124F3E6B0F83A1300F00DFED5
:1057800018B9052363700124EAE6032801D0012437
:10579000E6E6484803F0D8FC4E4803F0D5FC0A2062
:1057A00003F0EAFC94F81E330133DBB284F81E33B5
:1057B000032B09D9414803F0C7FC0A2003F0DCFCA5
:1057C0000D2323700124CBE66179204600F0DDFE35
:1057D0002179204600F0D9FE002363702370012454
:1057E000BEE690F83413F9B100F58E75FF232A4612
:1057F00000F0ECFD18B103280CD00124B0E62946D6
:10580000354803F0A1FC0A2003F0B6FC06236370C0
:105810000124A5E6314803F097FC0A2003F0ACFC14
:105820000623637001249BE62C4803F08DFC0A20BC
:1058300003F0A2FC06236370012491E690F835136F
:10584000F9B100F58E75FF232A4600F0BFFD18B1AF
:1058500003280CD0012483E62946214803F074FC78
:105860000A2003F089FC07236370012478E61D48B1
:1058700003F06AFC0A2003F07FFC07236370012415
:105880006EE6184803F060FC0A2003F075FC07235D
:105890006370012464E690F83613A9B300F58E75A1
:1058A000FF232A4600F092FD0446E8B1032823D0E6
:1058B000012455E638B5000840B5000874B5000865
:1058C000B4B50008C0B50008CCB5000808B600089B
:1058D00020B6000854B6000898B60008ACB6000818
:1058E000C0B60008D0B6000829460C4803F02CFCCE
:1058F0000A2003F041FC33E6094803F025FC0A20A6
:1059000003F03AFC00242BE6054803F01DFC0A20B6
:1059100003F032FC002423E6012421E6E0B600086F
:10592000F4B6000870B5D0B10E46044680F8CC231A
:105930000025C0F87C53C0F88053FFF7C2FD84F8FF
:10594000235384F8205384F8215384F822530EB152
:10595000C4F8D4632046FFF7E5FC002070BD05487D
:1059600003F0F2FB044803F0EFFB0A2003F004FC11
:105970000220F3E738B5000808B7000808B5B1B150
:105980000A46D0F880333BB9591CC0F88013DE3387
:1059900040F82320002008BD0A4803F0D5FB0A4840
:1059A00003F0D2FB0A2003F0E7FB0220F3E70548EF
:1059B00003F0CAFB054803F0C7FB0A2003F0DCFB39
:1059C0000220E8E738B50008E0B80008FCB8000895
:1059D00038B590F83C338B4226D905460C4685F8FD
:1059E0002413174803F0B0FB0A2003F0C5FB1A2369
:1059F00003FB045494F84713124803F0A5FB0A2054
:105A000003F0BAFB94F848130F4803F09DFB0A20FB
:105A100003F0B2FB94F849130C4803F095FB0A20FD
:105A200003F0AAFB002038BD094803F08DFB0948AC
:105A300003F08AFB0A2003F09FFB0220F3E700BF7C
:105A400014B9000834B9000844B9000854B9000872
:105A500038B5000864B900082DE9F04707468846C4
:105A600091469A462A4803F06FFB0A2003F084FB14
:105A70004946284803F068FB0A2003F07DFB5146A5
:105A8000254803F061FB0A2003F076FB00240BE0BD
:105A90001A2303FB067696F84933534535D0BAF1FD
:105AA000FF0F32D00134E4B2012C2DD826461A253E
:105AB00005FB047595F84713184803F045FB0A20C9
:105AC00003F05AFB95F84813154803F03DFB0A20F4
:105AD00003F052FB95F84913124803F035FB0A20F6
